{
  "contractName": "Session",
  "abi": [
    {
      "inputs": [
        {
          "internalType": "address",
          "name": "_mainContract",
          "type": "address"
        },
        {
          "internalType": "string",
          "name": "_name",
          "type": "string"
        },
        {
          "internalType": "string",
          "name": "_description",
          "type": "string"
        },
        {
          "internalType": "string",
          "name": "_image",
          "type": "string"
        }
      ],
      "payable": false,
      "stateMutability": "nonpayable",
      "type": "constructor"
    },
    {
      "constant": true,
      "inputs": [],
      "name": "creator",
      "outputs": [
        {
          "internalType": "address",
          "name": "",
          "type": "address"
        }
      ],
      "payable": false,
      "stateMutability": "view",
      "type": "function"
    },
    {
      "constant": true,
      "inputs": [],
      "name": "description",
      "outputs": [
        {
          "internalType": "string",
          "name": "",
          "type": "string"
        }
      ],
      "payable": false,
      "stateMutability": "view",
      "type": "function"
    },
    {
      "constant": true,
      "inputs": [
        {
          "internalType": "uint256",
          "name": "",
          "type": "uint256"
        }
      ],
      "name": "iParticipants",
      "outputs": [
        {
          "internalType": "address",
          "name": "",
          "type": "address"
        }
      ],
      "payable": false,
      "stateMutability": "view",
      "type": "function"
    },
    {
      "constant": true,
      "inputs": [],
      "name": "image",
      "outputs": [
        {
          "internalType": "string",
          "name": "",
          "type": "string"
        }
      ],
      "payable": false,
      "stateMutability": "view",
      "type": "function"
    },
    {
      "constant": true,
      "inputs": [],
      "name": "mainContract",
      "outputs": [
        {
          "internalType": "address",
          "name": "",
          "type": "address"
        }
      ],
      "payable": false,
      "stateMutability": "view",
      "type": "function"
    },
    {
      "constant": true,
      "inputs": [],
      "name": "nParticipants",
      "outputs": [
        {
          "internalType": "uint256",
          "name": "",
          "type": "uint256"
        }
      ],
      "payable": false,
      "stateMutability": "view",
      "type": "function"
    },
    {
      "constant": true,
      "inputs": [],
      "name": "name",
      "outputs": [
        {
          "internalType": "string",
          "name": "",
          "type": "string"
        }
      ],
      "payable": false,
      "stateMutability": "view",
      "type": "function"
    },
    {
      "constant": true,
      "inputs": [
        {
          "internalType": "address",
          "name": "",
          "type": "address"
        }
      ],
      "name": "pricings",
      "outputs": [
        {
          "internalType": "uint256",
          "name": "",
          "type": "uint256"
        }
      ],
      "payable": false,
      "stateMutability": "view",
      "type": "function"
    },
    {
      "constant": true,
      "inputs": [],
      "name": "proposedPrice",
      "outputs": [
        {
          "internalType": "uint256",
          "name": "",
          "type": "uint256"
        }
      ],
      "payable": false,
      "stateMutability": "view",
      "type": "function"
    },
    {
      "constant": true,
      "inputs": [],
      "name": "state",
      "outputs": [
        {
          "internalType": "enum Session.State",
          "name": "",
          "type": "uint8"
        }
      ],
      "payable": false,
      "stateMutability": "view",
      "type": "function"
    },
    {
      "constant": true,
      "inputs": [],
      "name": "stateBefore",
      "outputs": [
        {
          "internalType": "enum Session.State",
          "name": "",
          "type": "uint8"
        }
      ],
      "payable": false,
      "stateMutability": "view",
      "type": "function"
    },
    {
      "constant": true,
      "inputs": [],
      "name": "timeOut",
      "outputs": [
        {
          "internalType": "uint256",
          "name": "",
          "type": "uint256"
        }
      ],
      "payable": false,
      "stateMutability": "view",
      "type": "function"
    },
    {
      "constant": true,
      "inputs": [],
      "name": "timeStop",
      "outputs": [
        {
          "internalType": "uint256",
          "name": "",
          "type": "uint256"
        }
      ],
      "payable": false,
      "stateMutability": "view",
      "type": "function"
    },
    {
      "constant": false,
      "inputs": [
        {
          "internalType": "uint256",
          "name": "_timeOut",
          "type": "uint256"
        }
      ],
      "name": "startSession",
      "outputs": [],
      "payable": false,
      "stateMutability": "nonpayable",
      "type": "function"
    },
    {
      "constant": false,
      "inputs": [],
      "name": "closeSession",
      "outputs": [],
      "payable": false,
      "stateMutability": "nonpayable",
      "type": "function"
    },
    {
      "constant": false,
      "inputs": [],
      "name": "stopSession",
      "outputs": [],
      "payable": false,
      "stateMutability": "nonpayable",
      "type": "function"
    },
    {
      "constant": false,
      "inputs": [
        {
          "internalType": "uint256",
          "name": "_amount",
          "type": "uint256"
        }
      ],
      "name": "priceProduct",
      "outputs": [],
      "payable": false,
      "stateMutability": "nonpayable",
      "type": "function"
    },
    {
      "constant": false,
      "inputs": [],
      "name": "calculateFinalPrice",
      "outputs": [],
      "payable": false,
      "stateMutability": "nonpayable",
      "type": "function"
    },
    {
      "constant": false,
      "inputs": [
        {
          "internalType": "string",
          "name": "_name",
          "type": "string"
        },
        {
          "internalType": "string",
          "name": "_description",
          "type": "string"
        }
      ],
      "name": "updateProduct",
      "outputs": [],
      "payable": false,
      "stateMutability": "nonpayable",
      "type": "function"
    }
  ],
  "bytecode": "0x60806040523480156200001157600080fd5b50604051620026d9380380620026d9833981810160405260808110156200003757600080fd5b8101908080519060200190929190805160405193929190846401000000008211156200006257600080fd5b838201915060208201858111156200007957600080fd5b82518660018202830111640100000000821117156200009757600080fd5b8083526020830192505050908051906020019080838360005b83811015620000cd578082015181840152602081019050620000b0565b50505050905090810190601f168015620000fb5780820380516001836020036101000a031916815260200191505b50604052602001805160405193929190846401000000008211156200011f57600080fd5b838201915060208201858111156200013657600080fd5b82518660018202830111640100000000821117156200015457600080fd5b8083526020830192505050908051906020019080838360005b838110156200018a5780820151818401526020810190506200016d565b50505050905090810190601f168015620001b85780820380516001836020036101000a031916815260200191505b5060405260200180516040519392919084640100000000821115620001dc57600080fd5b83820191506020820185811115620001f357600080fd5b82518660018202830111640100000000821117156200021157600080fd5b8083526020830192505050908051906020019080838360005b83811015620002475780820151818401526020810190506200022a565b50505050905090810190601f168015620002755780820380516001836020036101000a031916815260200191505b50604052505050836000806101000a81548173ffffffffffffffffffffffffffffffffffffffff021916908373ffffffffffffffffffffffffffffffffffffffff16021790555083600160006101000a81548173ffffffffffffffffffffffffffffffffffffffff021916908373ffffffffffffffffffffffffffffffffffffffff160217905550600160009054906101000a900473ffffffffffffffffffffffffffffffffffffffff1673ffffffffffffffffffffffffffffffffffffffff1663f851a4406040518163ffffffff1660e01b815260040160206040518083038186803b1580156200036657600080fd5b505afa1580156200037b573d6000803e3d6000fd5b505050506040513d60208110156200039257600080fd5b8101908080519060200190929190505050600260006101000a81548173ffffffffffffffffffffffffffffffffffffffff021916908373ffffffffffffffffffffffffffffffffffffffff1602179055506000600260146101000a81548160ff021916908360048111156200040357fe5b021790555082600590805190602001906200042092919062000518565b5081600690805190602001906200043992919062000518565b5080600790805190602001906200045292919062000518565b50600160009054906101000a900473ffffffffffffffffffffffffffffffffffffffff1673ffffffffffffffffffffffffffffffffffffffff1663f390dd86306040518263ffffffff1660e01b8152600401808273ffffffffffffffffffffffffffffffffffffffff1673ffffffffffffffffffffffffffffffffffffffff168152602001915050600060405180830381600087803b158015620004f557600080fd5b505af11580156200050a573d6000803e3d6000fd5b5050505050505050620005c7565b828054600181600116156101000203166002900490600052602060002090601f016020900481019282601f106200055b57805160ff19168380011785556200058c565b828001600101855582156200058c579182015b828111156200058b5782518255916020019190600101906200056e565b5b5090506200059b91906200059f565b5090565b620005c491905b80821115620005c0576000816000905550600101620005a6565b5090565b90565b61210280620005d76000396000f3fe608060405234801561001057600080fd5b50600436106101215760003560e01c80639caeed63116100ad578063d270e7ab11610071578063d270e7ab1461056e578063e2342b7f146105b8578063e3635bfd146105d6578063efa492de146105f4578063f3ccaac01461062257610121565b80639caeed6314610480578063a3b9c9e5146104ac578063b63bc3b41461051a578063c19d93fb14610538578063cbd8c6131461056457610121565b806346eb54e9116100f457806346eb54e91461034f5780635e8ce73114610359578063614d85e1146103b15780637284e416146103cf578063771276121461045257610121565b806302d05d3f1461012657806306f4bcbf1461017057806306fdde031461017a5780632a450ba7146101fd575b600080fd5b61012e6106a5565b604051808273ffffffffffffffffffffffffffffffffffffffff1673ffffffffffffffffffffffffffffffffffffffff16815260200191505060405180910390f35b6101786106cb565b005b610182610850565b6040518080602001828103825283818151815260200191508051906020019080838360005b838110156101c25780820151818401526020810190506101a7565b50505050905090810190601f1680156101ef5780820380516001836020036101000a031916815260200191505b509250505060405180910390f35b61034d6004803603604081101561021357600080fd5b810190808035906020019064010000000081111561023057600080fd5b82018360208201111561024257600080fd5b8035906020019184600183028401116401000000008311171561026457600080fd5b91908080601f016020809104026020016040519081016040528093929190818152602001838380828437600081840152601f19601f820116905080830192505050505050509192919290803590602001906401000000008111156102c757600080fd5b8201836020820111156102d957600080fd5b803590602001918460018302840111640100000000831117156102fb57600080fd5b91908080601f016020809104026020016040519081016040528093929190818152602001838380828437600081840152601f19601f8201169050808301925050505050505091929192905050506108ee565b005b6103576109e3565b005b61039b6004803603602081101561036f57600080fd5b81019080803573ffffffffffffffffffffffffffffffffffffffff1690602001909291905050506111f3565b6040518082815260200191505060405180910390f35b6103b961120b565b6040518082815260200191505060405180910390f35b6103d7611211565b6040518080602001828103825283818151815260200191508051906020019080838360005b838110156104175780820151818401526020810190506103fc565b50505050905090810190601f1680156104445780820380516001836020036101000a031916815260200191505b509250505060405180910390f35b61047e6004803603602081101561046857600080fd5b81019080803590602001909291905050506112af565b005b610488611535565b6040518082600481111561049857fe5b60ff16815260200191505060405180910390f35b6104d8600480360360208110156104c257600080fd5b8101908080359060200190929190505050611548565b604051808273ffffffffffffffffffffffffffffffffffffffff1673ffffffffffffffffffffffffffffffffffffffff16815260200191505060405180910390f35b610522611584565b6040518082815260200191505060405180910390f35b61054061158a565b6040518082600481111561055057fe5b60ff16815260200191505060405180910390f35b61056c61159d565b005b6105766117ba565b604051808273ffffffffffffffffffffffffffffffffffffffff1673ffffffffffffffffffffffffffffffffffffffff16815260200191505060405180910390f35b6105c06117df565b6040518082815260200191505060405180910390f35b6105de6117e5565b6040518082815260200191505060405180910390f35b6106206004803603602081101561060a57600080fd5b81019080803590602001909291905050506117eb565b005b61062a611c41565b6040518080602001828103825283818151815260200191508051906020019080838360005b8381101561066a57808201518184015260208101905061064f565b50505050905090810190601f1680156106975780820380516001836020036101000a031916815260200191505b509250505060405180910390f35b600260009054906101000a900473ffffffffffffffffffffffffffffffffffffffff1681565b600260009054906101000a900473ffffffffffffffffffffffffffffffffffffffff1673ffffffffffffffffffffffffffffffffffffffff163373ffffffffffffffffffffffffffffffffffffffff161461078e576040517f08c379a000000000000000000000000000000000000000000000000000000000815260040180806020018281038252600a8152602001807f4f6e6c792061646d696e0000000000000000000000000000000000000000000081525060200191505060405180910390fd5b600180600481111561079c57fe5b600260149054906101000a900460ff1660048111156107b757fe5b1461082a576040517f08c379a00000000000000000000000000000000000000000000000000000000081526004018080602001828103825260128152602001807f5374617465206973206e6f742076616c6964000000000000000000000000000081525060200191505060405180910390fd5b60028060146101000a81548160ff0219169083600481111561084857fe5b021790555050565b60058054600181600116156101000203166002900480601f0160208091040260200160405190810160405280929190818152602001828054600181600116156101000203166002900480156108e65780601f106108bb576101008083540402835291602001916108e6565b820191906000526020600020905b8154815290600101906020018083116108c957829003601f168201915b505050505081565b600260009054906101000a900473ffffffffffffffffffffffffffffffffffffffff1673ffffffffffffffffffffffffffffffffffffffff163373ffffffffffffffffffffffffffffffffffffffff16146109b1576040517f08c379a000000000000000000000000000000000000000000000000000000000815260040180806020018281038252600a8152602001807f4f6e6c792061646d696e0000000000000000000000000000000000000000000081525060200191505060405180910390fd5b81600590805190602001906109c7929190612007565b5080600690805190602001906109de929190612007565b505050565b600260009054906101000a900473ffffffffffffffffffffffffffffffffffffffff1673ffffffffffffffffffffffffffffffffffffffff163373ffffffffffffffffffffffffffffffffffffffff1614610aa6576040517f08c379a000000000000000000000000000000000000000000000000000000000815260040180806020018281038252600a8152602001807f4f6e6c792061646d696e0000000000000000000000000000000000000000000081525060200191505060405180910390fd5b6002806004811115610ab457fe5b600260149054906101000a900460ff166004811115610acf57fe5b14610b42576040517f08c379a00000000000000000000000000000000000000000000000000000000081526004018080602001828103825260128152602001807f5374617465206973206e6f742076616c6964000000000000000000000000000081525060200191505060405180910390fd5b600080905060008090505b600b54811015610c8f57600060088281548110610b6657fe5b9060005260206000200160009054906101000a900473ffffffffffffffffffffffffffffffffffffffff169050610c7f600160009054906101000a900473ffffffffffffffffffffffffffffffffffffffff1673ffffffffffffffffffffffffffffffffffffffff1663a33a08b9836040518263ffffffff1660e01b8152600401808273ffffffffffffffffffffffffffffffffffffffff1673ffffffffffffffffffffffffffffffffffffffff16815260200191505060206040518083038186803b158015610c3557600080fd5b505afa158015610c49573d6000803e3d6000fd5b505050506040513d6020811015610c5f57600080fd5b810190808051906020019092919050505084611cdf90919063ffffffff16565b9250508080600101915050610b4d565b5060008090505b600b54811015610e3257600060088281548110610caf57fe5b9060005260206000200160009054906101000a900473ffffffffffffffffffffffffffffffffffffffff169050610e1e610e0d600160009054906101000a900473ffffffffffffffffffffffffffffffffffffffff1673ffffffffffffffffffffffffffffffffffffffff1663a33a08b9846040518263ffffffff1660e01b8152600401808273ffffffffffffffffffffffffffffffffffffffff1673ffffffffffffffffffffffffffffffffffffffff16815260200191505060206040518083038186803b158015610d8157600080fd5b505afa158015610d95573d6000803e3d6000fd5b505050506040513d6020811015610dab57600080fd5b8101908080519060200190929190505050606403600960008573ffffffffffffffffffffffffffffffffffffffff1673ffffffffffffffffffffffffffffffffffffffff16815260200190815260200160002054611d6790919063ffffffff16565b600a54611cdf90919063ffffffff16565b600a81905550508080600101915050610c96565b50610e6f610e5e82610e506064600b54611d6790919063ffffffff16565b611ded90919063ffffffff16565b600a54611e3790919063ffffffff16565b600a8190555060008090505b600b548110156111ca576000809050600060088381548110610e9957fe5b9060005260206000200160009054906101000a900473ffffffffffffffffffffffffffffffffffffffff169050600960008273ffffffffffffffffffffffffffffffffffffffff1673ffffffffffffffffffffffffffffffffffffffff16815260200190815260200160002054600a5410610f8057610f79600a54610f6b6064600960008673ffffffffffffffffffffffffffffffffffffffff1673ffffffffffffffffffffffffffffffffffffffff16815260200190815260200160002054600a5403611d6790919063ffffffff16565b611e3790919063ffffffff16565b9150610fee565b610feb600a54610fdd6064600a54600960008773ffffffffffffffffffffffffffffffffffffffff1673ffffffffffffffffffffffffffffffffffffffff1681526020019081526020016000205403611d6790919063ffffffff16565b611e3790919063ffffffff16565b91505b60006110f76110096001600b54611cdf90919063ffffffff16565b84600b54600160009054906101000a900473ffffffffffffffffffffffffffffffffffffffff1673ffffffffffffffffffffffffffffffffffffffff1663a33a08b9876040518263ffffffff1660e01b8152600401808273ffffffffffffffffffffffffffffffffffffffff1673ffffffffffffffffffffffffffffffffffffffff16815260200191505060206040518083038186803b1580156110ac57600080fd5b505afa1580156110c0573d6000803e3d6000fd5b505050506040513d60208110156110d657600080fd5b81019080805190602001909291905050500201611e3790919063ffffffff16565b9050600160009054906101000a900473ffffffffffffffffffffffffffffffffffffffff1673ffffffffffffffffffffffffffffffffffffffff1663fc3caadf83836040518363ffffffff1660e01b8152600401808373ffffffffffffffffffffffffffffffffffffffff1673ffffffffffffffffffffffffffffffffffffffff16815260200182815260200192505050600060405180830381600087803b1580156111a257600080fd5b505af11580156111b6573d6000803e3d6000fd5b505050505050508080600101915050610e7b565b506003600260146101000a81548160ff021916908360048111156111ea57fe5b02179055505050565b60096020528060005260406000206000915090505481565b60045481565b60068054600181600116156101000203166002900480601f0160208091040260200160405190810160405280929190818152602001828054600181600116156101000203166002900480156112a75780601f1061127c576101008083540402835291602001916112a7565b820191906000526020600020905b81548152906001019060200180831161128a57829003601f168201915b505050505081565b600260009054906101000a900473ffffffffffffffffffffffffffffffffffffffff1673ffffffffffffffffffffffffffffffffffffffff163373ffffffffffffffffffffffffffffffffffffffff1614611372576040517f08c379a000000000000000000000000000000000000000000000000000000000815260040180806020018281038252600a8152602001807f4f6e6c792061646d696e0000000000000000000000000000000000000000000081525060200191505060405180910390fd5b6000600481111561137f57fe5b600260149054906101000a900460ff16600481111561139a57fe5b14806113ca57506004808111156113ad57fe5b600260149054906101000a900460ff1660048111156113c857fe5b145b61143c576040517f08c379a00000000000000000000000000000000000000000000000000000000081526004018080602001828103825260148152602001807f43616e6e6f742073746172742073657373696f6e00000000000000000000000081525060200191505060405180910390fd5b6000600481111561144957fe5b600260149054906101000a900460ff16600481111561146457fe5b14156114c357600081141561148057600060048190555061149a565b6114934282611cdf90919063ffffffff16565b6004819055505b6001600260146101000a81548160ff021916908360048111156114b957fe5b0217905550611532565b600260159054906101000a900460ff16600260146101000a81548160ff021916908360048111156114f057fe5b021790555060035460045411156115315761152a60035461151c42600454611cdf90919063ffffffff16565b611ded90919063ffffffff16565b6004819055505b5b50565b600260159054906101000a900460ff1681565b6008818154811061155557fe5b906000526020600020016000915054906101000a900473ffffffffffffffffffffffffffffffffffffffff1681565b600b5481565b600260149054906101000a900460ff1681565b600260009054906101000a900473ffffffffffffffffffffffffffffffffffffffff1673ffffffffffffffffffffffffffffffffffffffff163373ffffffffffffffffffffffffffffffffffffffff1614611660576040517f08c379a000000000000000000000000000000000000000000000000000000000815260040180806020018281038252600a8152602001807f4f6e6c792061646d696e0000000000000000000000000000000000000000000081525060200191505060405180910390fd5b6000600481111561166d57fe5b600260149054906101000a900460ff16600481111561168857fe5b14806116b957506001600481111561169c57fe5b600260149054906101000a900460ff1660048111156116b757fe5b145b806116e95750600260048111156116cc57fe5b600260149054906101000a900460ff1660048111156116e757fe5b145b61175b576040517f08c379a00000000000000000000000000000000000000000000000000000000081526004018080602001828103825260148152602001807f43616e6e6f742073746f702073657373696f6e7300000000000000000000000081525060200191505060405180910390fd5b600260149054906101000a900460ff16600260156101000a81548160ff0219169083600481111561178857fe5b02179055506004600260146101000a81548160ff021916908360048111156117ac57fe5b021790555042600381905550565b6000809054906101000a900473ffffffffffffffffffffffffffffffffffffffff1681565b60035481565b600a5481565b60018060048111156117f957fe5b600260149054906101000a900460ff16600481111561181457fe5b14611887576040517f08c379a00000000000000000000000000000000000000000000000000000000081526004018080602001828103825260128152602001807f5374617465206973206e6f742076616c6964000000000000000000000000000081525060200191505060405180910390fd5b600160009054906101000a900473ffffffffffffffffffffffffffffffffffffffff1673ffffffffffffffffffffffffffffffffffffffff166385cd0841336040518263ffffffff1660e01b8152600401808273ffffffffffffffffffffffffffffffffffffffff1673ffffffffffffffffffffffffffffffffffffffff16815260200191505060206040518083038186803b15801561192657600080fd5b505afa15801561193a573d6000803e3d6000fd5b505050506040513d602081101561195057600080fd5b810190808051906020019092919050505073ffffffffffffffffffffffffffffffffffffffff163373ffffffffffffffffffffffffffffffffffffffff1614611a01576040517f08c379a00000000000000000000000000000000000000000000000000000000081526004018080602001828103825260138152602001807f4f6e6c792076616c69642072656769737465720000000000000000000000000081525060200191505060405180910390fd5b6000600454118015611a1557506004544210155b15611a425760028060146101000a81548160ff02191690836004811115611a3857fe5b0217905550611c3d565b6000600960003373ffffffffffffffffffffffffffffffffffffffff1673ffffffffffffffffffffffffffffffffffffffff168152602001908152602001600020541115611ad35781600960003373ffffffffffffffffffffffffffffffffffffffff1673ffffffffffffffffffffffffffffffffffffffff16815260200190815260200160002081905550611c3c565b81600960003373ffffffffffffffffffffffffffffffffffffffff1673ffffffffffffffffffffffffffffffffffffffff1681526020019081526020016000208190555060083390806001815401808255809150509060018203906000526020600020016000909192909190916101000a81548173ffffffffffffffffffffffffffffffffffffffff021916908373ffffffffffffffffffffffffffffffffffffffff160217905550600b81905550600160009054906101000a900473ffffffffffffffffffffffffffffffffffffffff1673ffffffffffffffffffffffffffffffffffffffff1663ef8779ed336040518263ffffffff1660e01b8152600401808273ffffffffffffffffffffffffffffffffffffffff1673ffffffffffffffffffffffffffffffffffffffff168152602001915050600060405180830381600087803b158015611c2357600080fd5b505af1158015611c37573d6000803e3d6000fd5b505050505b5b5050565b60078054600181600116156101000203166002900480601f016020809104026020016040519081016040528092919081815260200182805460018160011615610100020316600290048015611cd75780601f10611cac57610100808354040283529160200191611cd7565b820191906000526020600020905b815481529060010190602001808311611cba57829003601f168201915b505050505081565b600080828401905083811015611d5d576040517f08c379a000000000000000000000000000000000000000000000000000000000815260040180806020018281038252601b8152602001807f536166654d6174683a206164646974696f6e206f766572666c6f77000000000081525060200191505060405180910390fd5b8091505092915050565b600080831415611d7a5760009050611de7565b6000828402905082848281611d8b57fe5b0414611de2576040517f08c379a00000000000000000000000000000000000000000000000000000000081526004018080602001828103825260218152602001806120ad6021913960400191505060405180910390fd5b809150505b92915050565b6000611e2f83836040518060400160405280601e81526020017f536166654d6174683a207375627472616374696f6e206f766572666c6f770000815250611e81565b905092915050565b6000611e7983836040518060400160405280601a81526020017f536166654d6174683a206469766973696f6e206279207a65726f000000000000815250611f41565b905092915050565b6000838311158290611f2e576040517f08c379a00000000000000000000000000000000000000000000000000000000081526004018080602001828103825283818151815260200191508051906020019080838360005b83811015611ef3578082015181840152602081019050611ed8565b50505050905090810190601f168015611f205780820380516001836020036101000a031916815260200191505b509250505060405180910390fd5b5060008385039050809150509392505050565b60008083118290611fed576040517f08c379a00000000000000000000000000000000000000000000000000000000081526004018080602001828103825283818151815260200191508051906020019080838360005b83811015611fb2578082015181840152602081019050611f97565b50505050905090810190601f168015611fdf5780820380516001836020036101000a031916815260200191505b509250505060405180910390fd5b506000838581611ff957fe5b049050809150509392505050565b828054600181600116156101000203166002900490600052602060002090601f016020900481019282601f1061204857805160ff1916838001178555612076565b82800160010185558215612076579182015b8281111561207557825182559160200191906001019061205a565b5b5090506120839190612087565b5090565b6120a991905b808211156120a557600081600090555060010161208d565b5090565b9056fe536166654d6174683a206d756c7469706c69636174696f6e206f766572666c6f77a265627a7a72315820534466dbb932cbf929cd79667740e6990f56c471966e629012171b015da2980e64736f6c63430005110032",
  "source": "pragma solidity ^0.5.0;\n\n// Interface of Main contract to call from Session contract\n// contract Main {\n//     function addSession(address session) public {}\n// }\n\nimport \"./Main.sol\";\nimport \"./SafeMath.sol\";\n\ncontract Session {\n\n    using SafeMath for uint256;\n    // Variable to hold Main Contract Address when create new Session Contract\n    address public mainContract;\n    // Variable to hold Main Contract instance to call functions from Main\n    Main MainContract;\n\n    // TODO: Variables\n    address public creator;\n    enum State{CREATED, ONGOING, CLOSED, FINISHED, STOPPED}\n    State public state;\n    State public stateBefore;\n    uint public timeStop;\n    uint public timeOut;\n    string public name;\n    string public description;\n    string public image;\n    address[] public iParticipants;\n    mapping (address => uint) public pricings;\n    uint public proposedPrice;\n    uint public nParticipants;\n\n    constructor(address _mainContract, string memory _name, string memory _description, string memory _image) public {\n        // Get Main Contract instance\n        mainContract = _mainContract;\n        MainContract = Main(_mainContract);\n\n        // TODO: Init Session contract\n        creator = MainContract.admin();\n        state = State.CREATED;\n        name = _name;\n        description = _description;\n        image = _image;\n        // Call Main Contract function to link current contract.\n        MainContract.addSession(address(this));\n    }\n\n    // TODO: Functions\n    //modifier validstate\n    modifier validState(State _state) {\n        require(state==_state, \"State is not valid\");\n        _;\n    }\n\n    //modifier only admin\n    modifier onlyAdmin() {\n        require(msg.sender == creator, \"Only admin\");\n        _;\n    }\n\n    //modifier to check participants register or not\n    modifier validRegister() {\n        require(msg.sender == MainContract.getAccountOfParticipant(msg.sender), \"Only valid register\");\n        _;\n    }\n\n    //function for admin start Session\n    function startSession(uint _timeOut) public onlyAdmin {\n        require(state==State.CREATED || state==State.STOPPED,\"Cannot start session\");\n        if(state == State.CREATED) {\n            if(_timeOut == 0) {\n                timeOut = 0;\n            } else {\n                timeOut = _timeOut.add(now);\n            }\n            state = State.ONGOING;\n        } else {\n            state = stateBefore;\n            if(timeOut > timeStop) {\n                timeOut = timeOut.add(now).sub(timeStop);\n            }\n        }\n    }\n\n    function closeSession() public onlyAdmin validState(State.ONGOING) {\n        state = State.CLOSED;\n    }\n\n    //stop function to halt session a moment\n    function stopSession() public onlyAdmin {\n        require(state == State.CREATED || state == State.ONGOING || state == State.CLOSED, \"Cannot stop sessions\");\n        stateBefore = state;\n        state = State.STOPPED;\n        timeStop = now;\n    }\n\n    //function for participant price the product\n    function priceProduct(uint _amount) public validState(State.ONGOING) validRegister{\n        if(timeOut > 0 && now>= timeOut) {\n            state = State.CLOSED;\n        } else {\n            if(pricings[msg.sender] > 0) {\n                pricings[msg.sender] = _amount;\n            } else {\n                pricings[msg.sender] = _amount;\n                nParticipants = iParticipants.push(msg.sender);\n                MainContract.increNumSessionOfParticipant(msg.sender);\n            }\n        }\n    }\n\n    //function to calculate proposed price and final price\n    function calculateFinalPrice() public onlyAdmin validState(State.CLOSED) {\n        uint totalDeviation = 0;\n        //calucate total Deviation of all participant in a Session\n        for(uint i = 0; i<nParticipants; i++) {\n            address tempPar = iParticipants[i];\n            totalDeviation = totalDeviation.add(MainContract.getDeviation(tempPar));\n        }\n\n        //calculate proposedPrice\n        for(uint j = 0; j<nParticipants; j++) {\n            address _address = iParticipants[j];\n            proposedPrice = proposedPrice.add(pricings[_address].mul((100 - MainContract.getDeviation(_address))));\n        }\n        proposedPrice = proposedPrice.div(nParticipants.mul(100).sub(totalDeviation));\n\n        //update Deviation for each participant\n        for(uint k = 0; k<nParticipants; k++) {\n            uint deviationNew = 0;\n            address p = iParticipants[k];\n            if(proposedPrice >= pricings[p]){\n                deviationNew = (proposedPrice - pricings[p]).mul(100).div(proposedPrice);\n            } else {\n                deviationNew = (pricings[p] - proposedPrice).mul(100).div(proposedPrice);\n            }\n            uint genDevi = ((MainContract.getDeviation(p)*nParticipants + deviationNew).div(nParticipants.add(1)));\n            MainContract.setDeviation(p,genDevi);\n        }\n        state = State.FINISHED;\n    }\n\n    function updateProduct(string memory _name, string memory _description) public onlyAdmin {\n        name = _name;\n        description = _description;\n    }\n\n}\n\n\n\n",
  "sourcePath": "D:\\CNTT\\Blockchain\\Funixcourse\\BDP305x _ Capstone project _ Blockchain\\FunixPricingChain\\truffle\\contracts\\Session.sol",
  "compiler": {
    "name": "solc",
    "version": "0.5.17+commit.d19bba13.Emscripten.clang"
  },
  "schemaVersion": "3.4.7",
  "updatedAt": "2022-07-11T16:44:31.772Z",
  "devdoc": {
    "methods": {}
  },
  "userdoc": {
    "methods": {}
  }
}