{
  "contractName": "Session",
  "abi": [
    {
      "inputs": [
        {
          "internalType": "address",
          "name": "_mainContract",
          "type": "address"
        },
        {
          "internalType": "string",
          "name": "_name",
          "type": "string"
        },
        {
          "internalType": "string",
          "name": "_description",
          "type": "string"
        },
        {
          "internalType": "string",
          "name": "_image",
          "type": "string"
        }
      ],
      "payable": false,
      "stateMutability": "nonpayable",
      "type": "constructor"
    },
    {
      "constant": true,
      "inputs": [],
      "name": "creator",
      "outputs": [
        {
          "internalType": "address",
          "name": "",
          "type": "address"
        }
      ],
      "payable": false,
      "stateMutability": "view",
      "type": "function"
    },
    {
      "constant": true,
      "inputs": [],
      "name": "description",
      "outputs": [
        {
          "internalType": "string",
          "name": "",
          "type": "string"
        }
      ],
      "payable": false,
      "stateMutability": "view",
      "type": "function"
    },
    {
      "constant": true,
      "inputs": [
        {
          "internalType": "uint256",
          "name": "",
          "type": "uint256"
        }
      ],
      "name": "iParticipants",
      "outputs": [
        {
          "internalType": "address",
          "name": "",
          "type": "address"
        }
      ],
      "payable": false,
      "stateMutability": "view",
      "type": "function"
    },
    {
      "constant": true,
      "inputs": [],
      "name": "image",
      "outputs": [
        {
          "internalType": "string",
          "name": "",
          "type": "string"
        }
      ],
      "payable": false,
      "stateMutability": "view",
      "type": "function"
    },
    {
      "constant": true,
      "inputs": [],
      "name": "mainContract",
      "outputs": [
        {
          "internalType": "address",
          "name": "",
          "type": "address"
        }
      ],
      "payable": false,
      "stateMutability": "view",
      "type": "function"
    },
    {
      "constant": true,
      "inputs": [],
      "name": "nParticipants",
      "outputs": [
        {
          "internalType": "uint256",
          "name": "",
          "type": "uint256"
        }
      ],
      "payable": false,
      "stateMutability": "view",
      "type": "function"
    },
    {
      "constant": true,
      "inputs": [],
      "name": "name",
      "outputs": [
        {
          "internalType": "string",
          "name": "",
          "type": "string"
        }
      ],
      "payable": false,
      "stateMutability": "view",
      "type": "function"
    },
    {
      "constant": true,
      "inputs": [
        {
          "internalType": "address",
          "name": "",
          "type": "address"
        }
      ],
      "name": "pricings",
      "outputs": [
        {
          "internalType": "uint256",
          "name": "",
          "type": "uint256"
        }
      ],
      "payable": false,
      "stateMutability": "view",
      "type": "function"
    },
    {
      "constant": true,
      "inputs": [],
      "name": "proposedPrice",
      "outputs": [
        {
          "internalType": "uint256",
          "name": "",
          "type": "uint256"
        }
      ],
      "payable": false,
      "stateMutability": "view",
      "type": "function"
    },
    {
      "constant": true,
      "inputs": [],
      "name": "state",
      "outputs": [
        {
          "internalType": "enum Session.State",
          "name": "",
          "type": "uint8"
        }
      ],
      "payable": false,
      "stateMutability": "view",
      "type": "function"
    },
    {
      "constant": true,
      "inputs": [],
      "name": "stateBefore",
      "outputs": [
        {
          "internalType": "enum Session.State",
          "name": "",
          "type": "uint8"
        }
      ],
      "payable": false,
      "stateMutability": "view",
      "type": "function"
    },
    {
      "constant": true,
      "inputs": [],
      "name": "timeOut",
      "outputs": [
        {
          "internalType": "uint256",
          "name": "",
          "type": "uint256"
        }
      ],
      "payable": false,
      "stateMutability": "view",
      "type": "function"
    },
    {
      "constant": true,
      "inputs": [],
      "name": "timeStop",
      "outputs": [
        {
          "internalType": "uint256",
          "name": "",
          "type": "uint256"
        }
      ],
      "payable": false,
      "stateMutability": "view",
      "type": "function"
    },
    {
      "constant": false,
      "inputs": [
        {
          "internalType": "uint256",
          "name": "_timeOut",
          "type": "uint256"
        }
      ],
      "name": "startSession",
      "outputs": [],
      "payable": false,
      "stateMutability": "nonpayable",
      "type": "function"
    },
    {
      "constant": false,
      "inputs": [],
      "name": "closeSession",
      "outputs": [],
      "payable": false,
      "stateMutability": "nonpayable",
      "type": "function"
    },
    {
      "constant": false,
      "inputs": [],
      "name": "stopSession",
      "outputs": [],
      "payable": false,
      "stateMutability": "nonpayable",
      "type": "function"
    },
    {
      "constant": false,
      "inputs": [
        {
          "internalType": "uint256",
          "name": "_amount",
          "type": "uint256"
        }
      ],
      "name": "priceProduct",
      "outputs": [],
      "payable": false,
      "stateMutability": "nonpayable",
      "type": "function"
    },
    {
      "constant": false,
      "inputs": [],
      "name": "calculateFinalPrice",
      "outputs": [],
      "payable": false,
      "stateMutability": "nonpayable",
      "type": "function"
    },
    {
      "constant": false,
      "inputs": [
        {
          "internalType": "string",
          "name": "_name",
          "type": "string"
        },
        {
          "internalType": "string",
          "name": "_description",
          "type": "string"
        }
      ],
      "name": "updateProduct",
      "outputs": [],
      "payable": false,
      "stateMutability": "nonpayable",
      "type": "function"
    }
  ],
  "bytecode": "0x60806040523480156200001157600080fd5b50604051620026dd380380620026dd833981810160405260808110156200003757600080fd5b8101908080519060200190929190805160405193929190846401000000008211156200006257600080fd5b838201915060208201858111156200007957600080fd5b82518660018202830111640100000000821117156200009757600080fd5b8083526020830192505050908051906020019080838360005b83811015620000cd578082015181840152602081019050620000b0565b50505050905090810190601f168015620000fb5780820380516001836020036101000a031916815260200191505b50604052602001805160405193929190846401000000008211156200011f57600080fd5b838201915060208201858111156200013657600080fd5b82518660018202830111640100000000821117156200015457600080fd5b8083526020830192505050908051906020019080838360005b838110156200018a5780820151818401526020810190506200016d565b50505050905090810190601f168015620001b85780820380516001836020036101000a031916815260200191505b5060405260200180516040519392919084640100000000821115620001dc57600080fd5b83820191506020820185811115620001f357600080fd5b82518660018202830111640100000000821117156200021157600080fd5b8083526020830192505050908051906020019080838360005b83811015620002475780820151818401526020810190506200022a565b50505050905090810190601f168015620002755780820380516001836020036101000a031916815260200191505b50604052505050836000806101000a81548173ffffffffffffffffffffffffffffffffffffffff021916908373ffffffffffffffffffffffffffffffffffffffff16021790555083600160006101000a81548173ffffffffffffffffffffffffffffffffffffffff021916908373ffffffffffffffffffffffffffffffffffffffff160217905550600160009054906101000a900473ffffffffffffffffffffffffffffffffffffffff1673ffffffffffffffffffffffffffffffffffffffff1663f851a4406040518163ffffffff1660e01b815260040160206040518083038186803b1580156200036657600080fd5b505afa1580156200037b573d6000803e3d6000fd5b505050506040513d60208110156200039257600080fd5b8101908080519060200190929190505050600260006101000a81548173ffffffffffffffffffffffffffffffffffffffff021916908373ffffffffffffffffffffffffffffffffffffffff1602179055506000600260146101000a81548160ff021916908360048111156200040357fe5b021790555082600590805190602001906200042092919062000518565b5081600690805190602001906200043992919062000518565b5080600790805190602001906200045292919062000518565b50600160009054906101000a900473ffffffffffffffffffffffffffffffffffffffff1673ffffffffffffffffffffffffffffffffffffffff1663f390dd86306040518263ffffffff1660e01b8152600401808273ffffffffffffffffffffffffffffffffffffffff1673ffffffffffffffffffffffffffffffffffffffff168152602001915050600060405180830381600087803b158015620004f557600080fd5b505af11580156200050a573d6000803e3d6000fd5b5050505050505050620005c7565b828054600181600116156101000203166002900490600052602060002090601f016020900481019282601f106200055b57805160ff19168380011785556200058c565b828001600101855582156200058c579182015b828111156200058b5782518255916020019190600101906200056e565b5b5090506200059b91906200059f565b5090565b620005c491905b80821115620005c0576000816000905550600101620005a6565b5090565b90565b61210680620005d76000396000f3fe608060405234801561001057600080fd5b50600436106101215760003560e01c80639caeed63116100ad578063d270e7ab11610071578063d270e7ab1461056e578063e2342b7f146105b8578063e3635bfd146105d6578063efa492de146105f4578063f3ccaac01461062257610121565b80639caeed6314610480578063a3b9c9e5146104ac578063b63bc3b41461051a578063c19d93fb14610538578063cbd8c6131461056457610121565b806346eb54e9116100f457806346eb54e91461034f5780635e8ce73114610359578063614d85e1146103b15780637284e416146103cf578063771276121461045257610121565b806302d05d3f1461012657806306f4bcbf1461017057806306fdde031461017a5780632a450ba7146101fd575b600080fd5b61012e6106a5565b604051808273ffffffffffffffffffffffffffffffffffffffff1673ffffffffffffffffffffffffffffffffffffffff16815260200191505060405180910390f35b6101786106cb565b005b610182610850565b6040518080602001828103825283818151815260200191508051906020019080838360005b838110156101c25780820151818401526020810190506101a7565b50505050905090810190601f1680156101ef5780820380516001836020036101000a031916815260200191505b509250505060405180910390f35b61034d6004803603604081101561021357600080fd5b810190808035906020019064010000000081111561023057600080fd5b82018360208201111561024257600080fd5b8035906020019184600183028401116401000000008311171561026457600080fd5b91908080601f016020809104026020016040519081016040528093929190818152602001838380828437600081840152601f19601f820116905080830192505050505050509192919290803590602001906401000000008111156102c757600080fd5b8201836020820111156102d957600080fd5b803590602001918460018302840111640100000000831117156102fb57600080fd5b91908080601f016020809104026020016040519081016040528093929190818152602001838380828437600081840152601f19601f8201169050808301925050505050505091929192905050506108ee565b005b6103576109e3565b005b61039b6004803603602081101561036f57600080fd5b81019080803573ffffffffffffffffffffffffffffffffffffffff1690602001909291905050506111f7565b6040518082815260200191505060405180910390f35b6103b961120f565b6040518082815260200191505060405180910390f35b6103d7611215565b6040518080602001828103825283818151815260200191508051906020019080838360005b838110156104175780820151818401526020810190506103fc565b50505050905090810190601f1680156104445780820380516001836020036101000a031916815260200191505b509250505060405180910390f35b61047e6004803603602081101561046857600080fd5b81019080803590602001909291905050506112b3565b005b610488611539565b6040518082600481111561049857fe5b60ff16815260200191505060405180910390f35b6104d8600480360360208110156104c257600080fd5b810190808035906020019092919050505061154c565b604051808273ffffffffffffffffffffffffffffffffffffffff1673ffffffffffffffffffffffffffffffffffffffff16815260200191505060405180910390f35b610522611588565b6040518082815260200191505060405180910390f35b61054061158e565b6040518082600481111561055057fe5b60ff16815260200191505060405180910390f35b61056c6115a1565b005b6105766117be565b604051808273ffffffffffffffffffffffffffffffffffffffff1673ffffffffffffffffffffffffffffffffffffffff16815260200191505060405180910390f35b6105c06117e3565b6040518082815260200191505060405180910390f35b6105de6117e9565b6040518082815260200191505060405180910390f35b6106206004803603602081101561060a57600080fd5b81019080803590602001909291905050506117ef565b005b61062a611c45565b6040518080602001828103825283818151815260200191508051906020019080838360005b8381101561066a57808201518184015260208101905061064f565b50505050905090810190601f1680156106975780820380516001836020036101000a031916815260200191505b509250505060405180910390f35b600260009054906101000a900473ffffffffffffffffffffffffffffffffffffffff1681565b600260009054906101000a900473ffffffffffffffffffffffffffffffffffffffff1673ffffffffffffffffffffffffffffffffffffffff163373ffffffffffffffffffffffffffffffffffffffff161461078e576040517f08c379a000000000000000000000000000000000000000000000000000000000815260040180806020018281038252600a8152602001807f4f6e6c792061646d696e0000000000000000000000000000000000000000000081525060200191505060405180910390fd5b600180600481111561079c57fe5b600260149054906101000a900460ff1660048111156107b757fe5b1461082a576040517f08c379a00000000000000000000000000000000000000000000000000000000081526004018080602001828103825260128152602001807f5374617465206973206e6f742076616c6964000000000000000000000000000081525060200191505060405180910390fd5b60028060146101000a81548160ff0219169083600481111561084857fe5b021790555050565b60058054600181600116156101000203166002900480601f0160208091040260200160405190810160405280929190818152602001828054600181600116156101000203166002900480156108e65780601f106108bb576101008083540402835291602001916108e6565b820191906000526020600020905b8154815290600101906020018083116108c957829003601f168201915b505050505081565b600260009054906101000a900473ffffffffffffffffffffffffffffffffffffffff1673ffffffffffffffffffffffffffffffffffffffff163373ffffffffffffffffffffffffffffffffffffffff16146109b1576040517f08c379a000000000000000000000000000000000000000000000000000000000815260040180806020018281038252600a8152602001807f4f6e6c792061646d696e0000000000000000000000000000000000000000000081525060200191505060405180910390fd5b81600590805190602001906109c792919061200b565b5080600690805190602001906109de92919061200b565b505050565b600260009054906101000a900473ffffffffffffffffffffffffffffffffffffffff1673ffffffffffffffffffffffffffffffffffffffff163373ffffffffffffffffffffffffffffffffffffffff1614610aa6576040517f08c379a000000000000000000000000000000000000000000000000000000000815260040180806020018281038252600a8152602001807f4f6e6c792061646d696e0000000000000000000000000000000000000000000081525060200191505060405180910390fd5b6002806004811115610ab457fe5b600260149054906101000a900460ff166004811115610acf57fe5b14610b42576040517f08c379a00000000000000000000000000000000000000000000000000000000081526004018080602001828103825260128152602001807f5374617465206973206e6f742076616c6964000000000000000000000000000081525060200191505060405180910390fd5b600080905060008090505b600b54811015610c8f57600060088281548110610b6657fe5b9060005260206000200160009054906101000a900473ffffffffffffffffffffffffffffffffffffffff169050610c7f600160009054906101000a900473ffffffffffffffffffffffffffffffffffffffff1673ffffffffffffffffffffffffffffffffffffffff1663a33a08b9836040518263ffffffff1660e01b8152600401808273ffffffffffffffffffffffffffffffffffffffff1673ffffffffffffffffffffffffffffffffffffffff16815260200191505060206040518083038186803b158015610c3557600080fd5b505afa158015610c49573d6000803e3d6000fd5b505050506040513d6020811015610c5f57600080fd5b810190808051906020019092919050505084611ce390919063ffffffff16565b9250508080600101915050610b4d565b5060008090505b600b54811015610e3357600060088281548110610caf57fe5b9060005260206000200160009054906101000a900473ffffffffffffffffffffffffffffffffffffffff169050610e1f610e0e600160009054906101000a900473ffffffffffffffffffffffffffffffffffffffff1673ffffffffffffffffffffffffffffffffffffffff1663a33a08b9846040518263ffffffff1660e01b8152600401808273ffffffffffffffffffffffffffffffffffffffff1673ffffffffffffffffffffffffffffffffffffffff16815260200191505060206040518083038186803b158015610d8157600080fd5b505afa158015610d95573d6000803e3d6000fd5b505050506040513d6020811015610dab57600080fd5b810190808051906020019092919050505061271003600960008573ffffffffffffffffffffffffffffffffffffffff1673ffffffffffffffffffffffffffffffffffffffff16815260200190815260200160002054611d6b90919063ffffffff16565b600a54611ce390919063ffffffff16565b600a81905550508080600101915050610c96565b50610e84610e6082610e52612710600b54611d6b90919063ffffffff16565b611df190919063ffffffff16565b610e766064600a54611d6b90919063ffffffff16565b611e3b90919063ffffffff16565b600a8190555060008090505b600b548110156111ce576000809050600060088381548110610eae57fe5b9060005260206000200160009054906101000a900473ffffffffffffffffffffffffffffffffffffffff169050610f2e6064600960008473ffffffffffffffffffffffffffffffffffffffff1673ffffffffffffffffffffffffffffffffffffffff16815260200190815260200160002054611d6b90919063ffffffff16565b600a5410610f87576064600960008373ffffffffffffffffffffffffffffffffffffffff1673ffffffffffffffffffffffffffffffffffffffff16815260200190815260200160002054606402600a5403029150610fd4565b6064600a54600960008473ffffffffffffffffffffffffffffffffffffffff1673ffffffffffffffffffffffffffffffffffffffff16815260200190815260200160002054606402030291505b600082606402600a54600b54600160009054906101000a900473ffffffffffffffffffffffffffffffffffffffff1673ffffffffffffffffffffffffffffffffffffffff1663a33a08b9866040518263ffffffff1660e01b8152600401808273ffffffffffffffffffffffffffffffffffffffff1673ffffffffffffffffffffffffffffffffffffffff16815260200191505060206040518083038186803b15801561107f57600080fd5b505afa158015611093573d6000803e3d6000fd5b505050506040513d60208110156110a957600080fd5b810190808051906020019092919050505002020190506110fb6110ec600a546110de6001600b54611ce390919063ffffffff16565b611d6b90919063ffffffff16565b82611e3b90919063ffffffff16565b9050600160009054906101000a900473ffffffffffffffffffffffffffffffffffffffff1673ffffffffffffffffffffffffffffffffffffffff1663fc3caadf83836040518363ffffffff1660e01b8152600401808373ffffffffffffffffffffffffffffffffffffffff1673ffffffffffffffffffffffffffffffffffffffff16815260200182815260200192505050600060405180830381600087803b1580156111a657600080fd5b505af11580156111ba573d6000803e3d6000fd5b505050505050508080600101915050610e90565b506003600260146101000a81548160ff021916908360048111156111ee57fe5b02179055505050565b60096020528060005260406000206000915090505481565b60045481565b60068054600181600116156101000203166002900480601f0160208091040260200160405190810160405280929190818152602001828054600181600116156101000203166002900480156112ab5780601f10611280576101008083540402835291602001916112ab565b820191906000526020600020905b81548152906001019060200180831161128e57829003601f168201915b505050505081565b600260009054906101000a900473ffffffffffffffffffffffffffffffffffffffff1673ffffffffffffffffffffffffffffffffffffffff163373ffffffffffffffffffffffffffffffffffffffff1614611376576040517f08c379a000000000000000000000000000000000000000000000000000000000815260040180806020018281038252600a8152602001807f4f6e6c792061646d696e0000000000000000000000000000000000000000000081525060200191505060405180910390fd5b6000600481111561138357fe5b600260149054906101000a900460ff16600481111561139e57fe5b14806113ce57506004808111156113b157fe5b600260149054906101000a900460ff1660048111156113cc57fe5b145b611440576040517f08c379a00000000000000000000000000000000000000000000000000000000081526004018080602001828103825260148152602001807f43616e6e6f742073746172742073657373696f6e00000000000000000000000081525060200191505060405180910390fd5b6000600481111561144d57fe5b600260149054906101000a900460ff16600481111561146857fe5b14156114c757600081141561148457600060048190555061149e565b6114974282611ce390919063ffffffff16565b6004819055505b6001600260146101000a81548160ff021916908360048111156114bd57fe5b0217905550611536565b600260159054906101000a900460ff16600260146101000a81548160ff021916908360048111156114f457fe5b021790555060035460045411156115355761152e60035461152042600454611ce390919063ffffffff16565b611df190919063ffffffff16565b6004819055505b5b50565b600260159054906101000a900460ff1681565b6008818154811061155957fe5b906000526020600020016000915054906101000a900473ffffffffffffffffffffffffffffffffffffffff1681565b600b5481565b600260149054906101000a900460ff1681565b600260009054906101000a900473ffffffffffffffffffffffffffffffffffffffff1673ffffffffffffffffffffffffffffffffffffffff163373ffffffffffffffffffffffffffffffffffffffff1614611664576040517f08c379a000000000000000000000000000000000000000000000000000000000815260040180806020018281038252600a8152602001807f4f6e6c792061646d696e0000000000000000000000000000000000000000000081525060200191505060405180910390fd5b6000600481111561167157fe5b600260149054906101000a900460ff16600481111561168c57fe5b14806116bd5750600160048111156116a057fe5b600260149054906101000a900460ff1660048111156116bb57fe5b145b806116ed5750600260048111156116d057fe5b600260149054906101000a900460ff1660048111156116eb57fe5b145b61175f576040517f08c379a00000000000000000000000000000000000000000000000000000000081526004018080602001828103825260148152602001807f43616e6e6f742073746f702073657373696f6e7300000000000000000000000081525060200191505060405180910390fd5b600260149054906101000a900460ff16600260156101000a81548160ff0219169083600481111561178c57fe5b02179055506004600260146101000a81548160ff021916908360048111156117b057fe5b021790555042600381905550565b6000809054906101000a900473ffffffffffffffffffffffffffffffffffffffff1681565b60035481565b600a5481565b60018060048111156117fd57fe5b600260149054906101000a900460ff16600481111561181857fe5b1461188b576040517f08c379a00000000000000000000000000000000000000000000000000000000081526004018080602001828103825260128152602001807f5374617465206973206e6f742076616c6964000000000000000000000000000081525060200191505060405180910390fd5b600160009054906101000a900473ffffffffffffffffffffffffffffffffffffffff1673ffffffffffffffffffffffffffffffffffffffff166385cd0841336040518263ffffffff1660e01b8152600401808273ffffffffffffffffffffffffffffffffffffffff1673ffffffffffffffffffffffffffffffffffffffff16815260200191505060206040518083038186803b15801561192a57600080fd5b505afa15801561193e573d6000803e3d6000fd5b505050506040513d602081101561195457600080fd5b810190808051906020019092919050505073ffffffffffffffffffffffffffffffffffffffff163373ffffffffffffffffffffffffffffffffffffffff1614611a05576040517f08c379a00000000000000000000000000000000000000000000000000000000081526004018080602001828103825260138152602001807f4f6e6c792076616c69642072656769737465720000000000000000000000000081525060200191505060405180910390fd5b6000600454118015611a1957506004544210155b15611a465760028060146101000a81548160ff02191690836004811115611a3c57fe5b0217905550611c41565b6000600960003373ffffffffffffffffffffffffffffffffffffffff1673ffffffffffffffffffffffffffffffffffffffff168152602001908152602001600020541115611ad75781600960003373ffffffffffffffffffffffffffffffffffffffff1673ffffffffffffffffffffffffffffffffffffffff16815260200190815260200160002081905550611c40565b81600960003373ffffffffffffffffffffffffffffffffffffffff1673ffffffffffffffffffffffffffffffffffffffff1681526020019081526020016000208190555060083390806001815401808255809150509060018203906000526020600020016000909192909190916101000a81548173ffffffffffffffffffffffffffffffffffffffff021916908373ffffffffffffffffffffffffffffffffffffffff160217905550600b81905550600160009054906101000a900473ffffffffffffffffffffffffffffffffffffffff1673ffffffffffffffffffffffffffffffffffffffff1663ef8779ed336040518263ffffffff1660e01b8152600401808273ffffffffffffffffffffffffffffffffffffffff1673ffffffffffffffffffffffffffffffffffffffff168152602001915050600060405180830381600087803b158015611c2757600080fd5b505af1158015611c3b573d6000803e3d6000fd5b505050505b5b5050565b60078054600181600116156101000203166002900480601f016020809104026020016040519081016040528092919081815260200182805460018160011615610100020316600290048015611cdb5780601f10611cb057610100808354040283529160200191611cdb565b820191906000526020600020905b815481529060010190602001808311611cbe57829003601f168201915b505050505081565b600080828401905083811015611d61576040517f08c379a000000000000000000000000000000000000000000000000000000000815260040180806020018281038252601b8152602001807f536166654d6174683a206164646974696f6e206f766572666c6f77000000000081525060200191505060405180910390fd5b8091505092915050565b600080831415611d7e5760009050611deb565b6000828402905082848281611d8f57fe5b0414611de6576040517f08c379a00000000000000000000000000000000000000000000000000000000081526004018080602001828103825260218152602001806120b16021913960400191505060405180910390fd5b809150505b92915050565b6000611e3383836040518060400160405280601e81526020017f536166654d6174683a207375627472616374696f6e206f766572666c6f770000815250611e85565b905092915050565b6000611e7d83836040518060400160405280601a81526020017f536166654d6174683a206469766973696f6e206279207a65726f000000000000815250611f45565b905092915050565b6000838311158290611f32576040517f08c379a00000000000000000000000000000000000000000000000000000000081526004018080602001828103825283818151815260200191508051906020019080838360005b83811015611ef7578082015181840152602081019050611edc565b50505050905090810190601f168015611f245780820380516001836020036101000a031916815260200191505b509250505060405180910390fd5b5060008385039050809150509392505050565b60008083118290611ff1576040517f08c379a00000000000000000000000000000000000000000000000000000000081526004018080602001828103825283818151815260200191508051906020019080838360005b83811015611fb6578082015181840152602081019050611f9b565b50505050905090810190601f168015611fe35780820380516001836020036101000a031916815260200191505b509250505060405180910390fd5b506000838581611ffd57fe5b049050809150509392505050565b828054600181600116156101000203166002900490600052602060002090601f016020900481019282601f1061204c57805160ff191683800117855561207a565b8280016001018555821561207a579182015b8281111561207957825182559160200191906001019061205e565b5b509050612087919061208b565b5090565b6120ad91905b808211156120a9576000816000905550600101612091565b5090565b9056fe536166654d6174683a206d756c7469706c69636174696f6e206f766572666c6f77a265627a7a72315820c327b9af4ef5ebcc8ea232046e4d271fec24ee4103cb7f04b192daae49c5444264736f6c63430005110032",
  "source": "pragma solidity ^0.5.0;\n\n// Interface of Main contract to call from Session contract\n// contract Main {\n//     function addSession(address session) public {}\n// }\n\nimport \"./Main.sol\";\nimport \"./SafeMath.sol\";\n\ncontract Session {\n\n    using SafeMath for uint256;\n    // Variable to hold Main Contract Address when create new Session Contract\n    address public mainContract;\n    // Variable to hold Main Contract instance to call functions from Main\n    Main MainContract;\n\n    // TODO: Variables\n    address public creator;\n    enum State{CREATED, ONGOING, CLOSED, FINISHED, STOPPED}\n    State public state;\n    State public stateBefore;\n    uint public timeStop;\n    uint public timeOut;\n    string public name;\n    string public description;\n    string public image;\n    address[] public iParticipants;\n    mapping (address => uint) public pricings;\n    uint public proposedPrice;\n    uint public nParticipants;\n\n    constructor(address _mainContract, string memory _name, string memory _description, string memory _image) public {\n        // Get Main Contract instance\n        mainContract = _mainContract;\n        MainContract = Main(_mainContract);\n\n        // TODO: Init Session contract\n        creator = MainContract.admin();\n        state = State.CREATED;\n        name = _name;\n        description = _description;\n        image = _image;\n        // Call Main Contract function to link current contract.\n        MainContract.addSession(address(this));\n    }\n\n    // TODO: Functions\n    //modifier validstate\n    modifier validState(State _state) {\n        require(state==_state, \"State is not valid\");\n        _;\n    }\n\n    //modifier only admin\n    modifier onlyAdmin() {\n        require(msg.sender == creator, \"Only admin\");\n        _;\n    }\n\n    //modifier to check participants register or not\n    modifier validRegister() {\n        require(msg.sender == MainContract.getAccountOfParticipant(msg.sender), \"Only valid register\");\n        _;\n    }\n\n    //function for admin start Session\n    function startSession(uint _timeOut) public onlyAdmin {\n        require(state==State.CREATED || state==State.STOPPED,\"Cannot start session\");\n        if(state == State.CREATED) {\n            if(_timeOut == 0) {\n                timeOut = 0;\n            } else {\n                timeOut = _timeOut.add(now);\n            }\n            state = State.ONGOING;\n        } else {\n            state = stateBefore;\n            if(timeOut > timeStop) {\n                timeOut = timeOut.add(now).sub(timeStop);\n            }\n        }\n    }\n\n    function closeSession() public onlyAdmin validState(State.ONGOING) {\n        state = State.CLOSED;\n    }\n\n    //stop function to halt session a moment\n    function stopSession() public onlyAdmin {\n        require(state == State.CREATED || state == State.ONGOING || state == State.CLOSED, \"Cannot stop sessions\");\n        stateBefore = state;\n        state = State.STOPPED;\n        timeStop = now;\n    }\n\n    //function for participant price the product\n    function priceProduct(uint _amount) public validState(State.ONGOING) validRegister{\n        if(timeOut > 0 && now>= timeOut) {\n            state = State.CLOSED;\n        } else {\n            if(pricings[msg.sender] > 0) {\n                pricings[msg.sender] = _amount;\n            } else {\n                pricings[msg.sender] = _amount;\n                nParticipants = iParticipants.push(msg.sender);\n                MainContract.increNumSessionOfParticipant(msg.sender);\n            }\n        }\n    }\n\n    //function to calculate proposed price and final price\n    function calculateFinalPrice() public onlyAdmin validState(State.CLOSED) {\n        uint totalDeviation = 0;\n        //calucate total Deviation of all participant in a Session\n        for(uint i=0; i<nParticipants; i++) {\n            address tempPar = iParticipants[i];\n            totalDeviation = totalDeviation.add(MainContract.getDeviation(tempPar));\n        }\n\n        //calculate proposedPrice\n        for(uint j = 0; j<nParticipants; j++) {\n            address _address = iParticipants[j];\n            proposedPrice = proposedPrice.add(pricings[_address].mul((10000-MainContract.getDeviation(_address))));\n        }\n        proposedPrice = proposedPrice.mul(100).div(nParticipants.mul(10000).sub(totalDeviation));\n\n        //update Deviation for each participant\n        for(uint k = 0; k<nParticipants; k++) {\n            uint deviationNew = 0;\n            address p = iParticipants[k];\n            if(proposedPrice >= pricings[p].mul(100)){\n                deviationNew = (proposedPrice - 100*pricings[p])*100;\n            } else {\n                deviationNew = (100*pricings[p] - proposedPrice)*100;\n            }\n            uint genDevi = (MainContract.getDeviation(p)*nParticipants*proposedPrice + 100*deviationNew);\n            genDevi = genDevi.div(((nParticipants.add(1)).mul(proposedPrice)));\n            MainContract.setDeviation(p,genDevi);\n        }\n        state = State.FINISHED;\n    }\n\n    function updateProduct(string memory _name, string memory _description) public onlyAdmin {\n        name = _name;\n        description = _description;\n    }\n\n}\n\n\n\n",
  "sourcePath": "D:\\CNTT\\Blockchain\\Funixcourse\\BDP305x _ Capstone project _ Blockchain\\FunixPricingChain\\truffle\\contracts\\Session.sol",
  "compiler": {
    "name": "solc",
    "version": "0.5.17+commit.d19bba13.Emscripten.clang"
  },
  "schemaVersion": "3.4.7",
  "updatedAt": "2022-06-23T16:38:52.124Z",
  "devdoc": {
    "methods": {}
  },
  "userdoc": {
    "methods": {}
  }
}